:100000000C945D000C9485000C9485000C94850084
:100010000C9485000C9485000C9485000C9485004C
:100020000C9485000C9485000C9485000C9485003C
:100030000C9485000C9485000C9485000C9485002C
:100040000C9426040C9485000C94F4030C94CE03B9
:100050000C9485000C9485000C9485000C9485000C
:100060000C9485000C94850000000008000201003B
:100070000003040700000000000000000000000072
:10008000250028002B0000000000240027002A0083
:10009000040404040404040402020202020203032E
:1000A0000303030301020408102040800102040836
:1000B0001020010204081020700411241FBECFEF8D
:1000C000D8E0DEBFCDBF11E0A0E0B1E0EAE4FCE0A3
:1000D00002C005900D92AE36B107D9F722E0AEE628
:1000E000B1E001C01D92AB32B207E1F710E0CDE5FF
:1000F000D0E004C02197FE010E941D06CC35D10737
:10010000C9F70E949D040C94F8050C94000090E03F
:10011000FC01EC55FF4F249180579F4FFC018491C7
:10012000882399F090E0880F991FFC01EA57FF4F50
:10013000A591B491FC01E458FF4F859194918FB73C
:10014000F894EC91E22BEC938FBF08958EBD0000E4
:100150000DB407FEFDCF8EB50895FC01918D828D03
:10016000981761F0828DDF01A80FB11D5D968C910B
:10017000928D9F5F9F73928F90E008958FEF9FEF16
:100180000895FC01918D828D981731F0828DE80FD2
:10019000F11D858D90E008958FEF9FEF0895FC018C
:1001A000918D228D892F90E0805C9F4F821B910959
:1001B0008F7399270895FC01848DDF01A80FB11D6D
:1001C000A35ABF4F2C91848D90E001968F7399278D
:1001D000848FA689B7892C93A089B1898C9180647A
:1001E0008C93938D848D981306C00288F389E02D3B
:1001F00080818F7D80830895EF92FF920F931F93EC
:10020000CF93DF93EC01F62E81E0888F9B8D8C8D50
:10021000981305C0E889F989808185FD2CC00B8D74
:1002200010E00F5F1F4F0F731127E02E8C8DE81227
:100230000CC00FB607FCFACFE889F989808185FFE9
:10024000F5CFCE010E94DB00F1CF8B8DFE01E80FD0
:10025000F11DE35AFF4FF0820B8FEA89FB89808101
:100260008062808381E090E0DF91CF911F910F91B8
:10027000FF90EF900895EE89FF896083E889F989FE
:1002800080818064EECFCF93DF93EC01888D88234B
:1002900051F0EA89FB89808185FD08C0A889B98968
:1002A0008C9186FF03C0DF91CF9108950FB607FCB4
:1002B000F2CF808185FFEFCFE889F989808185FFC2
:1002C000E8CFCE010E94DB00E4CFCF92DF92EF9225
:1002D000FF920F931F93CF93DF937C016A018B01F1
:1002E000C0E0D0E0CC15DD0579F0D8016D918D012D
:1002F000D701ED91FC910190F081E02DC7010995A6
:10030000892B11F02196EECFCE01DF91CF911F9175
:100310000F91FF90EF90DF90CF90089590E0FC0157
:10032000E859FF4F3491FC01EC55FF4F2491FC013B
:10033000E057FF4FE491EE23C9F0332339F0333017
:1003400001F1A8F4313019F1323029F1F0E0EE0F6B
:10035000FF1FE458FF4FA591B4918FB7F894EC912B
:10036000611126C020952E232C938FBF089537301E
:10037000A9F03830C9F0343049F7809180008F7D82
:1003800003C0809180008F7780938000DFCF84B599
:100390008F7784BDDBCF84B58F7DFBCF8091B0009C
:1003A0008F778093B000D2CF8091B0008F7DF9CF4E
:1003B0002E2BDACF0F931F93CF938C01C62F60E0C3
:1003C000FC0180810E948E018C2F880F8E778068BF
:1003D0000E94A60080E00E94A600C82F61E0F801FC
:1003E00080810E948E018C2FCF911F910F910895D3
:1003F0000F931F93CF93DF938C01C62FD42F60E010
:10040000FC0180810E948E018C2F880F8E770E94C4
:10041000A6008D2F0E94A60061E0F8018081DF9187
:10042000CF911F910F910C948E010F931F93CF9337
:10043000DF938C01D62FC42F0E94DA01482F4C2B5A
:100440006D2FC801DF91CF911F910F910C94F8018E
:10045000789484B5826084BD84B5816084BD85B59F
:10046000826085BD85B5816085BDEEE6F0E0808166
:1004700081608083E1E8F0E0108280818260808387
:10048000808181608083E0E8F0E08081816080830A
:10049000E1EBF0E0808184608083E0EBF0E080813C
:1004A00081608083EAE7F0E08081846080838081DE
:1004B0008260808380818160808380818068808386
:1004C0001092C10008953FB7F89480917A019091FD
:1004D0007B01A0917C01B0917D0126B5A89B05C050
:1004E0002F3F19F00196A11DB11D3FBFBA2FA92FB3
:1004F000982F8827BC01CD01620F711D811D911DB0
:1005000042E0660F771F881F991F4A95D1F708951B
:10051000CF92DF92EF92FF92CF93DF936B017C013A
:100520000E946302EB01C114D104E104F10439F427
:10053000DF91CF91FF90EF90DF90CF9008950E94D0
:1005400063026C1B7D0B683E734068F381E0C81A40
:10055000D108E108F108C851DC4FE5CFAF92BF9256
:10056000DF92EF92FF920F931F93CF93DF93EC01F3
:100570005B018A0147EF62E00E94F80164E0CE016E
:100580000E94DA01482F4F7764E0CE010E94F80103
:1005900040E86AE0CE010E94150240E061E0CE0131
:1005A0000E94F8017BE1E72E72E0F72EC7018B5124
:1005B00092408A159B0544F4F70141917F0169E05F
:1005C000CE010E94F801F2CF4CE061E0CE010E9422
:1005D000F80140E86DE0CE010E94150269E1E62EC7
:1005E000F12C61E070E080E090E00E94880264E01D
:1005F000CE010E94DA01D82EF1E0EF1AF10811F0D5
:10060000817379F36DE0CE010E94DA01482F4F77B4
:100610006DE0CE010E94F801EF2809F448C066E0C1
:10062000CE010E94DA018D7109F041C0D0FAFF2499
:10063000F0F8E12C6AE0CE010E94DA01D82E6CE0DD
:10064000CE010E94DA0187702D2D30E051F121504A
:10065000310953E0220F331F5A95E1F7280F311D5E
:10066000F80131832083D11002C0DD24D3948D2D75
:1006700090E0419714F020E1D22E9BE1A92E92E068
:10068000B92E0D2D10E0C5018B51924080179107B6
:100690008CF469E0CE010E94DA01F50181935F01DB
:1006A000F2CF43E0220F331F4A95E1F7D9CF82E022
:1006B000F82EE12C8F2D9E2DDF91CF911F910F9160
:1006C000FF90EF90DF90BF90AF900895009799F062
:1006D000FC0101900020E9F73197AF01481B590B4D
:1006E000E0917E01F0917F010280F381E02DBC0159
:1006F0008EE791E0099480E090E008958F929F92B8
:10070000AF92BF92EF92FF920F931F93CF93DF931D
:10071000CDB7DEB7A1970FB6F894DEBF0FBECDBF41
:10072000162F042F19A2242F30E0223031050CF4AB
:100730000AE07E0121E2E20EF11C802E912CA12C18
:10074000B12C612FA50194010E94FB05029F101995
:10075000112481E0E81AF1081A30F4F4105DF70171
:100760001083122F732FCA01232B242B252B49F71B
:10077000C7010E946603A1960FB6F894DEBF0FBEB4
:10078000CDBFDF91CF911F910F91FF90EF90BF9060
:10079000AF909F908F900895195CE1CF1F920F92B8
:1007A0000FB60F9211242F933F934F935F936F9344
:1007B0007F938F939F93AF93BF93EF93FF938EE7B6
:1007C00091E00E94DB00FF91EF91BF91AF919F916B
:1007D0008F917F916F915F914F913F912F910F90EA
:1007E0000FBE0F901F9018951F920F920FB60F9289
:1007F00011242F938F939F93EF93FF93E0918E019A
:10080000F0918F018081E0919401F091950182FD3A
:100810001BC09081809197018F5F8F732091980109
:10082000821741F0E0919701F0E0E258FE4F958F7A
:1008300080939701FF91EF919F918F912F910F904E
:100840000FBE0F901F9018958081F4CF1F920F92CA
:100850000FB60F9211242F933F938F939F93AF93D3
:10086000BF938091760190917701A0917801B0912A
:1008700079013091750123E0230F2D3758F501964A
:10088000A11DB11D2093750180937601909377018E
:10089000A0937801B093790180917A0190917B01C6
:1008A000A0917C01B0917D010196A11DB11D8093A5
:1008B0007A0190937B01A0937C01B0937D01BF915D
:1008C000AF919F918F913F912F910F900FBE0F90FD
:1008D0001F90189526E8230F0296A11DB11DD2CFB7
:1008E000EEE7F1E01382128288EE93E0A0E0B0E040
:1008F00084839583A683B78384E091E0918380838A
:1009000085EC90E09587848784EC90E097878687D4
:1009100080EC90E0918B808B81EC90E0938B828BCC
:1009200082EC90E0958B848B86EC90E0978B868BA5
:10093000118E128E138E148E0895CF93DF9300D0F4
:1009400000D000D0CDB7DEB70E9428028AE090E048
:100950009A8389830E94870061E089810E948E01C9
:1009600088E090E09C838B830E94870061E08B810C
:100970000E948E0183E00E94870060E083E00E9475
:100980008E0185E00E94870060E085E00E948E0174
:1009900061E08AE00E948E018AE00E9487008CB5A7
:1009A00080618CBD8CB580648CBD8DE00E94870019
:1009B0008BE00E948700E0918E01F0918F0182E030
:1009C0008083E0918A01F0918B011082E0918C018B
:1009D000F0918D0180E1808310929601E091920167
:1009E000F091930186E08083E0919001F091910174
:1009F000808180618083E0919001F09191018081FC
:100A000088608083E0919001F091910180818068FD
:100A10008083E0919001F091910180818F7D8083AE
:100A200080E191E00E94660388E291E00E94660303
:100A300061E089810E948E014FE061E0CE01019664
:100A40000E94F8014DE86AE2CE0101960E94F80189
:100A50004EE36BE2CE0101960E94F8014EE16DE299
:100A6000CE0101960E94F80140E06CE2CE010196B1
:100A70000E94F80140E465E1CE0101960E94F80170
:100A80004DE361E1CE0101960E94F80143E064E18B
:100A9000CE0101960E94150267E3CE0101960E94E5
:100AA000DA01182F811105C08BE291E00E946603E4
:100AB000FFCF84E491E00E94660386E591E00E9406
:100AC0006603612F70E080E090E040E10E947E03C9
:100AD00088E291E00E94660388E291E00E9466034A
:100AE00086E2D82E93E9C92E20E2B22E33E7E32E18
:100AF00031E0F32E47E06DE0CE0101960E94F8014F
:100B0000D0921B02AE014B5F5F4F61E070E0CE01FF
:100B100001960E94AE02009709F065C02D813E81CA
:100B20002031310509F05FC0182F8093740161E016
:100B300070E080E090E00E9488021111DBCF40E07D
:100B40006DE0CE0101960E94F801C0921B02B092A6
:100B50001C02AE014B5F5F4F62E070E0CE01019678
:100B60000E94AE0284E0EBE1F2E0AFE6B1E001907A
:100B70000D928A95E1F70FE611E0F80161918F017E
:100B800070E080E090E040E10E947E038BE691E01F
:100B90000E946603E016F10681F7809172018E3D96
:100BA00009F0A8CF61E083E00E948E0168EE73E057
:100BB00080E090E00E94880260E083E00E948E0165
:100BC00080916E0191E0892780936E01882371F0F6
:100BD00061E085E00E948E0168E873E180E090E0CA
:100BE0000E94880287CF82E090E09ECF60E0F1CF44
:100BF000F8940C942306A1E21A2EAA1BBB1BFD013C
:100C00000DC0AA1FBB1FEE1FFF1FA217B307E407EB
:100C1000F50720F0A21BB30BE40BF50B661F771F43
:100C2000881F991F1A9469F7609570958095909523
:100C30009B01AC01BD01CF010895EE0FFF1F059090
:0A0C4000F491E02D0994F894FFCF21
:100C4A0000000000FC006501CF00AD00C1004301B7
:100C5A004C6F6F6B696E6720666F7220524649440B
:100C6A0020526561646572000D0A004469646E274A
:100C7A00742066696E6420524335323220626F6195
:100C8A0072642E00466F756E642063686970205224
:100C9A004335323220004669726D7761726520767B
:0E0CAA00657273696F6E3A203078002C20005E
:00000001FF
