:100000000C945D000C9485000C9485000C94850084
:100010000C9485000C9485000C9485000C9485004C
:100020000C9485000C9485000C9485000C9485003C
:100030000C9485000C9485000C9485000C9485002C
:100040000C9434040C9485000C9402040C94DC038E
:100050000C9485000C9485000C9485000C9485000C
:100060000C9485000C94850000000008000201003B
:100070000003040700000000000000000000000072
:10008000250028002B0000000000240027002A0083
:10009000040404040404040402020202020203032E
:1000A0000303030301020408102040800102040836
:1000B00010200102040810207E0411241FBECFEF7F
:1000C000D8E0DEBFCDBF11E0A0E0B1E0ECE9FCE09C
:1000D00002C005900D92AC38B107D9F722E0ACE828
:1000E000B1E001C01D92A934B207E1F710E0CDE5FF
:1000F000D0E004C02197FE010E944606CC35D1070E
:10010000C9F70E94AB040C9421060C94000090E007
:10011000FC01EC55FF4F249180579F4FFC018491C7
:10012000882399F090E0880F991FFC01EA57FF4F50
:10013000A591B491FC01E458FF4F859194918FB73C
:10014000F894EC91E22BEC938FBF08958EBD0000E4
:100150000DB407FEFDCF8EB50895FC01918D828D03
:10016000981761F0828DDF01A80FB11D5D968C910B
:10017000928D9F5F9F73928F90E008958FEF9FEF16
:100180000895FC01918D828D981731F0828DE80FD2
:10019000F11D858D90E008958FEF9FEF0895FC018C
:1001A000918D228D892F90E0805C9F4F821B910959
:1001B0008F7399270895FC01848DDF01A80FB11D6D
:1001C000A35ABF4F2C91848D90E001968F7399278D
:1001D000848FA689B7892C93A089B1898C9180647A
:1001E0008C93938D848D981306C00288F389E02D3B
:1001F00080818F7D80830895EF92FF920F931F93EC
:10020000CF93DF93EC01F62E81E0888F9B8D8C8D50
:10021000981305C0E889F989808185FD2CC00B8D74
:1002200010E00F5F1F4F0F731127E02E8C8DE81227
:100230000CC00FB607FCFACFE889F989808185FFE9
:10024000F5CFCE010E94DB00F1CF8B8DFE01E80FD0
:10025000F11DE35AFF4FF0820B8FEA89FB89808101
:100260008062808381E090E0DF91CF911F910F91B8
:10027000FF90EF900895EE89FF896083E889F989FE
:1002800080818064EECFCF93DF93EC01888D88234B
:1002900051F0EA89FB89808185FD08C0A889B98968
:1002A0008C9186FF03C0DF91CF9108950FB607FCB4
:1002B000F2CF808185FFEFCFE889F989808185FFC2
:1002C000E8CFCE010E94DB00E4CFCF92DF92EF9225
:1002D000FF920F931F93CF93DF937C016A018B01F1
:1002E000C0E0D0E0CC15DD0579F0D8016D918D012D
:1002F000D701ED91FC910190F081E02DC7010995A6
:10030000892B11F02196EECFCE01DF91CF911F9175
:100310000F91FF90EF90DF90CF90089590E0FC0157
:10032000E859FF4F3491FC01EC55FF4F2491FC013B
:10033000E057FF4FE491EE23C9F0332339F0333017
:1003400001F1A8F4313019F1323029F1F0E0EE0F6B
:10035000FF1FE458FF4FA591B4918FB7F894EC912B
:10036000611126C020952E232C938FBF089537301E
:10037000A9F03830C9F0343049F7809180008F7D82
:1003800003C0809180008F7780938000DFCF84B599
:100390008F7784BDDBCF84B58F7DFBCF8091B0009C
:1003A0008F778093B000D2CF8091B0008F7DF9CF4E
:1003B0002E2BDACF0F931F93CF938C01C62F60E0C3
:1003C000FC0180810E948E018C2F880F8E778068BF
:1003D0000E94A60080E00E94A600C82F61E0F801FC
:1003E00080810E948E018C2FCF911F910F910895D3
:1003F0000F931F93CF93DF938C01C62FD42F60E010
:10040000FC0180810E948E018C2F880F8E770E94C4
:10041000A6008D2F0E94A60061E0F8018081DF9187
:10042000CF911F910F910C948E010F931F93CF9337
:10043000DF938C01D62FC42F0E94DA01482F4C2B5A
:100440006D2FC801DF91CF911F910F910C94F8018E
:10045000789484B5826084BD84B5816084BD85B59F
:10046000826085BD85B5816085BDEEE6F0E0808166
:1004700081608083E1E8F0E0108280818260808387
:10048000808181608083E0E8F0E08081816080830A
:10049000E1EBF0E0808184608083E0EBF0E080813C
:1004A00081608083EAE7F0E08081846080838081DE
:1004B0008260808380818160808380818068808386
:1004C0001092C10008953FB7F894809198019091DF
:1004D0009901A0919A01B0919B0126B5A89B05C0F6
:1004E0002F3F19F00196A11DB11D3FBFBA2FA92FB3
:1004F000982F8827BC01CD01620F711D811D911DB0
:1005000042E0660F771F881F991F4A95D1F708951B
:10051000CF92DF92EF92FF92CF93DF936B017C013A
:100520000E946302EB01C114D104E104F10439F427
:10053000DF91CF91FF90EF90DF90CF9008950E94D0
:1005400063026C1B7D0B683E734068F381E0C81A40
:10055000D108E108F108C851DC4FE5CFAF92BF9256
:10056000DF92EF92FF920F931F93CF93DF93EC01F3
:100570005B018A0147EF62E00E94F80164E0CE016E
:100580000E94DA01482F4F7764E0CE010E94F80103
:1005900040E86AE0CE010E94150240E061E0CE0131
:1005A0000E94F80179E3E72E72E0F72EC701895324
:1005B00092408A159B0544F4F70141917F0169E05F
:1005C000CE010E94F801F2CF4CE061E0CE010E9422
:1005D000F80140E86DE0CE010E94150269E1E62EC7
:1005E000F12C61E070E080E090E00E94880264E01D
:1005F000CE010E94DA01D82EF1E0EF1AF10811F0D5
:10060000817379F36DE0CE010E94DA01482F4F77B4
:100610006DE0CE010E94F801EF2809F448C066E0C1
:10062000CE010E94DA018D7109F041C0D0FAFF2499
:10063000F0F8E12C6AE0CE010E94DA01D82E6CE0DD
:10064000CE010E94DA0187702D2D30E051F121504A
:10065000310953E0220F331F5A95E1F7280F311D5E
:10066000F80131832083D11002C0DD24D3948D2D75
:1006700090E0419714F020E1D22E99E3A92E92E068
:10068000B92E0D2D10E0C5018953924080179107B6
:100690008CF469E0CE010E94DA01F50181935F01DB
:1006A000F2CF43E0220F331F4A95E1F7D9CF82E022
:1006B000F82EE12C8F2D9E2DDF91CF911F910F9160
:1006C000FF90EF90DF90BF90AF900895009799F062
:1006D000FC0101900020E9F73197AF01481B590B4D
:1006E000E0919C01F0919D010280F381E02DBC011D
:1006F0008CE991E0099480E090E00895CF93DF9336
:100700000E946603EC0180E191E00E9466038C0F79
:100710009D1FDF91CF9108958F929F92AF92BF92CC
:10072000EF92FF920F931F93CF93DF93CDB7DEB776
:10073000A1970FB6F894DEBF0FBECDBF162F042FC2
:1007400019A2242F30E0223031050CF40AE07E019A
:1007500021E2E20EF11C802E912CA12CB12C612FF4
:10076000A50194010E942406029F1019112481E022
:10077000E81AF1081A30F4F4105DF7011083122F13
:10078000732FCA01232B242B252B49F7C7010E9465
:100790006603A1960FB6F894DEBF0FBECDBFDF9102
:1007A000CF911F910F91FF90EF90BF90AF909F90CE
:1007B0008F900895195CE1CF1F920F920FB60F92A0
:1007C00011242F933F934F935F936F937F938F9356
:1007D0009F93AF93BF93EF93FF938CE991E00E94B7
:1007E000DB00FF91EF91BF91AF919F918F917F912E
:1007F0006F915F914F913F912F910F900FBE0F908E
:100800001F9018951F920F920FB60F9211242F93DD
:100810008F939F93EF93FF93E091AC01F091AD0123
:100820008081E091B201F091B30182FD1BC0908103
:100830008091B5018F5F8F732091B601821741F0CF
:10084000E091B501F0E0E456FE4F958F8093B5013D
:10085000FF91EF919F918F912F910F900FBE0F906D
:100860001F9018958081F4CF1F920F920FB60F92B0
:1008700011242F933F938F939F93AF93BF938091B6
:10088000940190919501A0919601B09197013091BA
:10089000930123E0230F2D3758F50196A11DB11DBB
:1008A000209393018093940190939501A0939601D6
:1008B000B09397018091980190919901A0919A012C
:1008C000B0919B010196A11DB11D80939801909359
:1008D0009901A0939A01B0939B01BF91AF919F9111
:1008E0008F913F912F910F900FBE0F901F901895F1
:1008F00026E8230F0296A11DB11DD2CFECE9F1E04D
:100900001382128288EE93E0A0E0B0E084839583A6
:10091000A683B78384E091E09183808385EC90E0A7
:100920009587848784EC90E09787868780EC90E0B9
:10093000918B808B81EC90E0938B828B82EC90E0AA
:10094000958B848B86EC90E0978B868B118E128E24
:10095000138E148E0895CF93DF9300D000D000D073
:10096000CDB7DEB70E9428028AE090E09A8389839F
:100970000E94870061E089810E948E0188E090E0FA
:100980009C838B830E94870061E08B810E948E0193
:1009900083E00E94870060E083E00E948E0185E092
:1009A0000E94870060E085E00E948E0161E08AE09D
:1009B0000E948E018AE00E9487008CB580618CBD08
:1009C0008CB580648CBD8DE00E9487008BE00E9416
:1009D0008700E091AC01F091AD0182E08083E0916D
:1009E000A801F091A9011082E091AA01F091AB0158
:1009F00080E180831092B401E091B001F091B101E7
:100A000086E08083E091AE01F091AF01808180614A
:100A10008083E091AE01F091AF0180818860808396
:100A2000E091AE01F091AF01808180688083E09118
:100A3000AE01F091AF0180818F7D808383E191E0F1
:100A40000E947E0361E089810E948E014FE061E097
:100A5000CE0101960E94F8014DE86AE2CE010196AE
:100A60000E94F8014EE36BE2CE0101960E94F8016C
:100A70004EE16DE2CE0101960E94F80140E06CE289
:100A8000CE0101960E94F80140E465E1CE01019695
:100A90000E94F8014DE361E1CE0101960E94F80148
:100AA00043E064E1CE0101960E94150267E3CE01A6
:100AB00001960E94DA01182F811105C08BE291E0A6
:100AC0000E946603FFCF84E491E00E94660386E5FE
:100AD00091E00E946603612F70E080E090E040E1C9
:100AE0000E948C0380E191E00E94660380E191E026
:100AF0000E94660386E2D82E93E9C92E20E2B22E28
:100B000031E9E32E31E0F32E47E06DE0CE010196AE
:100B10000E94F801D0923902AE014B5F5F4F61E055
:100B200070E0CE0101960E94AE02009709F084C0E9
:100B30002D813E812031310509F07EC0182F809330
:100B4000920161E070E080E090E00E948802111163
:100B5000DBCF40E06DE0CE0101960E94F801C0922B
:100B60003902B0923A02AE014B5F5F4F62E070E033
:100B7000CE0101960E94AE0284E0E9E3F2E0ADE826
:100B8000B1E001900D928A95E1F78BE691E00E9429
:100B90007E0389E791E00E9466030DE811E0F80109
:100BA00061918F0170E080E090E040E10E948C0351
:100BB00089E891E00E946603E016F10681F782E180
:100BC00091E00E947E0380E191E00E9466038091A3
:100BD0008D01883809F098CF80918E01843009F01A
:100BE00093CF80918F018F3D09F08ECF809190013E
:100BF0008E3D09F089CF61E083E00E948E0168EEAE
:100C000073E080E090E00E94880260E083E00E9450
:100C10008E0180918C0191E0892780938C0188233B
:100C200071F061E085E00E948E0168E873E180E088
:100C300090E00E94880268CF82E090E07FCF60E081
:100C4000F1CFF8940C944C06A1E21A2EAA1BBB1B00
:100C5000FD010DC0AA1FBB1FEE1FFF1FA217B30788
:100C6000E407F50720F0A21BB30BE40BF50B661F9E
:100C7000771F881F991F1A9469F760957095809562
:100C800090959B01AC01BD01CF010895EE0FFF1FB0
:0C0C90000590F491E02D0994F894FFCF3A
:100C9C0000000000FC006501CF00AD00C100430165
:100CAC000D0A004C6F6F6B696E6720666F72205275
:100CBC0046494420526561646572004469646E273C
:100CCC00742066696E6420524335323220626F6143
:100CDC0072642E00466F756E6420636869702052D2
:100CEC004335323220004669726D77617265207629
:100CFC00657273696F6E3A203078005461672064B6
:100D0C00657465637465642E0053657269616C204B
:0C0D1C004E756D6265723A20002C2000BC
:00000001FF
