:100000000C945D000C9485000C9485000C94850084
:100010000C9485000C9485000C9485000C9485004C
:100020000C9485000C9485000C9485000C9485003C
:100030000C9485000C9485000C9485000C9485002C
:100040000C94D6030C9485000C94A4030C947E03AA
:100050000C9485000C9485000C9485000C9485000C
:100060000C9485000C94850000000008000201003B
:100070000003040700000000000000000000000072
:10008000250028002B0000000000240027002A0083
:10009000040404040404040402020202020203032E
:1000A0000303030301020408102040800102040836
:1000B0001020010204081020200411241FBECFEFDD
:1000C000D8E0DEBFCDBF11E0A0E0B1E0E8E6FBE0A4
:1000D00002C005900D92A431B107D9F721E0A4E147
:1000E000B1E001C01D92AF3CB207E1F710E0CDE5F1
:1000F000D0E004C02197FE010E94AC05CC35D107A9
:10010000C9F70E944D040C94A9050C94000090E0DE
:10011000FC01EC55FF4F249180579F4FFC018491C7
:10012000882399F090E0880F991FFC01EA57FF4F50
:10013000A591B491FC01E458FF4F859194918FB73C
:10014000F894EC91E22BEC938FBF08958EBD0000E4
:100150000DB407FEFDCF8EB50895FC01918D828D03
:10016000981761F0828DDF01A80FB11D5D968C910B
:10017000928D9F5F9F73928F90E008958FEF9FEF16
:100180000895FC01918D828D981731F0828DE80FD2
:10019000F11D858D90E008958FEF9FEF0895FC018C
:1001A000918D228D892F90E0805C9F4F821B910959
:1001B0008F7399270895FC01848DDF01A80FB11D6D
:1001C000A35ABF4F2C91848D90E001968F7399278D
:1001D000848FA689B7892C93A089B1898C9180647A
:1001E0008C93938D848D981306C00288F389E02D3B
:1001F00080818F7D80830895EF92FF920F931F93EC
:10020000CF93DF93EC01F62E81E0888F9B8D8C8D50
:10021000981305C0E889F989808185FD2CC00B8D74
:1002200010E00F5F1F4F0F731127E02E8C8DE81227
:100230000CC00FB607FCFACFE889F989808185FFE9
:10024000F5CFCE010E94DB00F1CF8B8DFE01E80FD0
:10025000F11DE35AFF4FF0820B8FEA89FB89808101
:100260008062808381E090E0DF91CF911F910F91B8
:10027000FF90EF900895EE89FF896083E889F989FE
:1002800080818064EECFCF93DF93EC01888D88234B
:1002900051F0EA89FB89808185FD08C0A889B98968
:1002A0008C9186FF03C0DF91CF9108950FB607FCB4
:1002B000F2CF808185FFEFCFE889F989808185FFC2
:1002C000E8CFCE010E94DB00E4CFCF92DF92EF9225
:1002D000FF920F931F93CF93DF937C016A018B01F1
:1002E000C0E0D0E0CC15DD0579F0D8016D918D012D
:1002F000D701ED91FC910190F081E02DC7010995A6
:10030000892B11F02196EECFCE01DF91CF911F9175
:100310000F91FF90EF90DF90CF90089590E0FC0157
:10032000E859FF4F3491FC01EC55FF4F2491FC013B
:10033000E057FF4FE491EE23C9F0332339F0333017
:1003400001F1A8F4313019F1323029F1F0E0EE0F6B
:10035000FF1FE458FF4FA591B4918FB7F894EC912B
:10036000611126C020952E232C938FBF089537301E
:10037000A9F03830C9F0343049F7809180008F7D82
:1003800003C0809180008F7780938000DFCF84B599
:100390008F7784BDDBCF84B58F7DFBCF8091B0009C
:1003A0008F778093B000D2CF8091B0008F7DF9CF4E
:1003B0002E2BDACF0F931F93CF938C01C62F60E0C3
:1003C000FC0180810E948E018C2F880F8E778068BF
:1003D0000E94A60080E00E94A600C82F61E0F801FC
:1003E00080810E948E018C2FCF911F910F910895D3
:1003F0000F931F93CF93DF938C01C62FD42F60E010
:10040000FC0180810E948E018C2F880F8E770E94C4
:10041000A6008D2F0E94A60061E0F8018081DF9187
:10042000CF911F910F910C948E010F931F93CF9337
:10043000DF938C01D62FC42F0E94DA01482F4C2B5A
:100440006D2FC801DF91CF911F910F910C94F8018E
:10045000789484B5826084BD84B5816084BD85B59F
:10046000826085BD85B5816085BDEEE6F0E0808166
:1004700081608083E1E8F0E0108280818260808387
:10048000808181608083E0E8F0E08081816080830A
:10049000E1EBF0E0808184608083E0EBF0E080813C
:1004A00081608083EAE7F0E08081846080838081DE
:1004B0008260808380818160808380818068808386
:1004C0001092C10008953FB7F89480911E01909159
:1004D0001F01A0912001B091210126B5A89B05C064
:1004E0002F3F19F00196A11DB11D3FBFBA2FA92FB3
:1004F000982F8827BC01CD01620F711D811D911DB0
:1005000042E0660F771F881F991F4A95D1F708951B
:10051000CF92DF92EF92FF92CF93DF936B017C013A
:100520000E946302EB01C114D104E104F10439F427
:10053000DF91CF91FF90EF90DF90CF9008950E94D0
:1005400063026C1B7D0B683E734068F381E0C81A40
:10055000D108E108F108C851DC4FE5CFAF92BF9256
:10056000DF92EF92FF920F931F93CF93DF93EC01F3
:100570005B018A0147EF62E00E94F80164E0CE016E
:100580000E94DA01482F4F7764E0CE010E94F80103
:1005900040E86AE0CE010E94150240E061E0CE0131
:1005A0000E94F80172E2E72E71E0F72EC701825235
:1005B00091408A159B0544F4F70141917F0169E060
:1005C000CE010E94F801F2CF4CE061E0CE010E9422
:1005D000F80140E86DE0CE010E94150269E1E62EC7
:1005E000F12C61E070E080E090E00E94880264E01D
:1005F000CE010E94DA01D82EF1E0EF1AF10811F0D5
:10060000817379F36DE0CE010E94DA01482F4F77B4
:100610006DE0CE010E94F801EF2809F448C066E0C1
:10062000CE010E94DA018D7109F041C0D0FAFF2499
:10063000F0F8E12C6AE0CE010E94DA01D82E6CE0DD
:10064000CE010E94DA0187702D2D30E051F121504A
:10065000310953E0220F331F5A95E1F7280F311D5E
:10066000F80131832083D11002C0DD24D3948D2D75
:1006700090E0419714F020E1D22E92E2A92E91E071
:10068000B92E0D2D10E0C5018252914080179107BF
:100690008CF469E0CE010E94DA01F50181935F01DB
:1006A000F2CF43E0220F331F4A95E1F7D9CF82E022
:1006B000F82EE12C8F2D9E2DDF91CF911F910F9160
:1006C000FF90EF90DF90BF90AF900895009799F062
:1006D000FC0101900020E9F73197AF01481B590B4D
:1006E000E0913201F09133010280F381E02DBC01F1
:1006F00082E391E0099480E090E008951F920F92C8
:100700000FB60F9211242F933F934F935F936F93E4
:100710007F938F939F93AF93BF93EF93FF9382E366
:1007200091E00E94DB00FF91EF91BF91AF919F910B
:100730008F917F916F915F914F913F912F910F908A
:100740000FBE0F901F9018951F920F920FB60F9229
:1007500011242F938F939F93EF93FF93E091420186
:10076000F09143018081E0914801F091490182FDBF
:100770001BC0908180914B018F5F8F7320914C0142
:10078000821741F0E0914B01F0E0EE5CFE4F958F57
:1007900080934B01FF91EF919F918F912F910F903B
:1007A0000FBE0F901F9018958081F4CF1F920F926B
:1007B0000FB60F9211242F933F938F939F93AF9374
:1007C000BF9380911A0190911B01A0911C01B091DF
:1007D0001D013091190123E0230F2D3758F50196A3
:1007E000A11DB11D2093190180931A0190931B0143
:1007F000A0931C01B0931D0180911E0190911F01D7
:10080000A0912001B09121010196A11DB11D8093FD
:100810001E0190931F01A0932001B0932101BF916D
:10082000AF919F918F913F912F910F900FBE0F909D
:100830001F90189526E8230F0296A11DB11DD2CF57
:10084000E2E3F1E01382128288EE93E0A0E0B0E0F0
:1008500084839583A683B78384E091E0918380832A
:1008600085EC90E09587848784EC90E09787868775
:1008700080EC90E0918B808B81EC90E0938B828B6D
:1008800082EC90E0958B848B86EC90E0978B868B46
:10089000118E128E138E148E0895CF93DF93CDB7E1
:1008A000DEB7A5970FB6F894DEBF0FBECDBF0E948E
:1008B00028028AE090E09BA38AA30E94870061E05F
:1008C0008AA10E948E0188E090E09DA38CA30E94E3
:1008D000870061E08CA10E948E0183E00E94870066
:1008E00060E083E00E948E0185E00E94870060E066
:1008F00085E00E948E0161E08AE00E948E018AE01C
:100900000E9487008CB580618CBD8CB580648CBDE5
:100910008DE00E9487008BE00E948700E0914201F9
:10092000F091430182E08083E0913E01F0913F012C
:100930001082E0914001F091410180E180831092AA
:100940004A01E0914601F091470186E08083E09101
:100950004401F0914501808180618083E0914401F0
:10096000F0914501808188608083E0914401F0919D
:100970004501808180688083E0914401F0914501C8
:1009800080818F7D808361E08AA10E948E014FE08B
:1009900061E0CE0182960E94F8014DE86AE2CE0144
:1009A00082960E94F8014EE36BE2CE0182960E948D
:1009B000F8014EE16DE2CE0182960E94F80140E01E
:1009C0006CE2CE0182960E94F80140E465E1CE011E
:1009D00082960E94F8014DE361E1CE0182960E9469
:1009E000F80143E064E1CE0182960E94150267E3BC
:1009F000CE0182960E94DA01811101C0FFCF36E25A
:100A0000D32E43E9C42E50E2B52E68E1E62E61E014
:100A1000F62E47E06DE0CE0182960E94F801D0925A
:100A20002201AE014F5F5F4F61E070E0CE01829620
:100A30000E94AE02009709F087C029813A812031D7
:100A4000310509F081C0182F8093180161E070E032
:100A500080E090E00E9488021111DBCF40E06DE061
:100A6000CE0182960E94F801C0922201B092230129
:100A7000AE014F5F5F4F62E070E0CE0182960E9450
:100A8000AE028091220190912301A0912401B091A6
:100A900025018093140190931501A0931601B09342
:100AA0001701809117018E3D09F0B3CF61E085E019
:100AB0000E948E0161E083E00E948E0168EE73E087
:100AC00080E090E00E94880260E085E00E948E0154
:100AD00060E083E00E948E0182E191E00E94660363
:100AE00004E111E0F80141918F0150E060E070E015
:100AF00019A2CE0181962A013B0124E076946794E5
:100B0000579447942A95D1F7242D2295207F421B94
:100B100001974A30E4F4405DFC014083B301A20137
:100B200045284628472839F70E946603E016F10653
:100B3000C9F680E191E00E94660368E873E180E015
:100B400090E00E94880265CF82E090E07CCF495C13
:100B5000E3CFF8940C94B205EE0FFF1F0590F491CB
:080B6000E02D0994F894FFCF89
:100B680000000000FC006501CF00AD00C10043019A
:040B78003E003C00FF
:00000001FF
